:020000040000FA
:060000000A128A11122809
:10000800FE00030EF9000408FA000A08FB00831238
:1000180003137F08FC000A128A11372A0A128A1170
:100028001528FD0183120313A001A101A201A30158
:10003800A401A501A601A701A801A901AA01AB0174
:10004800AC01AD01AE0183010A128A1184292B2863
:10005800FF0000308A007F08820731280A128A11BF
:10006800B92A0A128A11B22A0A128A11AB2A0A126A
:100078008A110A2983120313B300043033020318C8
:1000880046284728092908302F0203184C284D28EC
:1000980009293003031D51285228AD28972801301B
:1000A800B1002F0A59280310B10DFF3E031D572830
:1000B8003108FF3AFF007F088316031385050929D5
:1000C8000130B1002F0A6A280310B10DFF3E031D4D
:1000D80068283108FF3AFF007F0883160313860556
:1000E80009290130B1002F0A7B280310B10DFF3E0A
:1000F800031D79283108FF3AFF007F088316031390
:10010800870509290130B1002F0A8C280310B10D89
:10011800FF3E031D8A283108FF3AFF007F08831637
:100128000313880509293308B100B2013208003ADF
:1001380003199F2809293108003A03195328013A5D
:1001480003196428033A03197528013A0319862804
:1001580009293008031DB128B2280929F3280130DC
:10016800B1002F0AB9280310B10DFF3E031DB728AF
:100178003108FF007F08831603138504092901301D
:10018800B1002F0AC9280310B10DFF3E031DC7286F
:100198003108FF007F0883160313860409290130FC
:1001A800B1002F0AD9280310B10DFF3E031DD7282F
:1001B8003108FF007F0883160313870409290130DB
:1001C800B1002F0AE9280310B10DFF3E031DE728EF
:1001D8003108FF007F0883160313880409293308B0
:1001E800B100B2013208003A0319FB280929310885
:1001F800003A0319B328013A0319C328033A03192B
:10020800D328013A0319E32809290800F701F7015F
:100218000530FF007F08F00077080A128A1187224C
:100228000A128A11223E840083130008F300840A0C
:100238000008F40073087404031D23292429642981
:100248000530FF007F08F00077080A128A1187221C
:100258000A128A11243E8400831300080A128A11A4
:100268002C200A128A110530FF007F08F000770859
:100278000A128A1187220A128A11203E84008313E7
:100288000008F300840A0008F4007308FF3EF50034
:1002980074080318013EFF3EF6000530FF007F0892
:1002A800F00077080A128A1187220A128A11223E60
:1002B8008400750883138000840A760880007929F1
:1002C8000530FF007F08F00077080A128A1187229C
:1002D8000A128A11223E8400013083138002840F9F
:1002E8000030031C8003800284030130FF007F0874
:1002F800F70703307702031C822983290C29080099
:100308000A128A1111220A128A110A128A11A422C7
:100318000A128A11B83083120313B2000B30B300EB
:100328000030B400B5000430FF007F08B60000308C
:100338000A128A11D2210A128A11B83083120313C1
:10034800B2000B30B300E830B4000330B50007301A
:10035800FF007F08B60001300A128A11D2210A1262
:100368008A11B83083120313B2000B30B300D030B7
:10037800B4000730B5000130FF007F08B600023036
:100388000A128A11D2210A128A110A128A117122BA
:100398000A128A11CE290A128A111228831203130B
:1003A800B7000530FF007F08AF0037080A128A112E
:1003B8005A220A128A11203E84008312031332083B
:1003C80083138000840A330880000530FF007F080B
:1003D800AF0037080A128A115A220A128A11223EDD
:1003E800840083120313340883138000840A3508B9
:1003F80080000530FF007F08AF0037080A128A1115
:100408005A220A128A11243E8400831203133608E2
:10041800FF007F0883138000080083120313AF01D5
:10042800B001B00A02300A128A113E200A128A115B
:1004380083120313AF01AF0AB001B00A02300A12E7
:100448008A113E200A128A110230FF007F088312A7
:100458000313AF00B001B00A02300A128A113E201D
:100468000A128A1108000C08F80002300310F80C70
:10047800FF3E031D3A2A781C422A432A4F2A7D0848
:100488000A128A112C200A128A11FB30FF007F08F9
:10049800831203138C057C08FF007B088A007A0806
:1004A8008400790E8300FE0E7E0E0900831203136A
:1004B800B100B001311C612A622A662A2F08FF00A8
:1004C8007F08B0070310AF0D0310B10C3108031DEE
:1004D8006E2A6F2A5E2A30080800831203138E01E1
:1004E8008F012130FF007F0890000B30FF007F084C
:1004F800970003309600E8309500831603130C1517
:100508000B178B170800F200F101721C8C2A8D2A38
:10051800912A7008FF007F08F1070310F00D0310FF
:10052800F20C7208031D992A9A2A892A7108080070
:1005380083120313AF002F08FF007F08FD00080097
:100548000A300A128A119C220A128A110800023003
:10055800FF007F0883120313870608000130FF009D
:100568007F0883120313870608000430FF007F0802
:0805780083120313870608003B
:00000001FF
